{
  "_format": "hh-sol-artifact-1",
  "contractName": "ProjectNemesis",
  "sourceName": "contracts/ProjectNemesis.sol",
  "abi": [
    {
      "inputs": [],
      "stateMutability": "payable",
      "type": "constructor"
    },
    {
      "anonymous": false,
      "inputs": [
        {
          "indexed": true,
          "internalType": "address",
          "name": "owner",
          "type": "address"
        },
        {
          "indexed": true,
          "internalType": "address",
          "name": "approved",
          "type": "address"
        },
        {
          "indexed": true,
          "internalType": "uint256",
          "name": "tokenId",
          "type": "uint256"
        }
      ],
      "name": "Approval",
      "type": "event"
    },
    {
      "anonymous": false,
      "inputs": [
        {
          "indexed": true,
          "internalType": "address",
          "name": "owner",
          "type": "address"
        },
        {
          "indexed": true,
          "internalType": "address",
          "name": "operator",
          "type": "address"
        },
        {
          "indexed": false,
          "internalType": "bool",
          "name": "approved",
          "type": "bool"
        }
      ],
      "name": "ApprovalForAll",
      "type": "event"
    },
    {
      "anonymous": false,
      "inputs": [
        {
          "indexed": true,
          "internalType": "address",
          "name": "previousOwner",
          "type": "address"
        },
        {
          "indexed": true,
          "internalType": "address",
          "name": "newOwner",
          "type": "address"
        }
      ],
      "name": "OwnershipTransferred",
      "type": "event"
    },
    {
      "anonymous": false,
      "inputs": [
        {
          "indexed": true,
          "internalType": "address",
          "name": "from",
          "type": "address"
        },
        {
          "indexed": true,
          "internalType": "address",
          "name": "to",
          "type": "address"
        },
        {
          "indexed": true,
          "internalType": "uint256",
          "name": "tokenId",
          "type": "uint256"
        }
      ],
      "name": "Transfer",
      "type": "event"
    },
    {
      "inputs": [
        {
          "internalType": "address",
          "name": "to",
          "type": "address"
        },
        {
          "internalType": "uint256",
          "name": "tokenId",
          "type": "uint256"
        }
      ],
      "name": "approve",
      "outputs": [],
      "stateMutability": "nonpayable",
      "type": "function"
    },
    {
      "inputs": [
        {
          "internalType": "address",
          "name": "owner",
          "type": "address"
        }
      ],
      "name": "balanceOf",
      "outputs": [
        {
          "internalType": "uint256",
          "name": "",
          "type": "uint256"
        }
      ],
      "stateMutability": "view",
      "type": "function"
    },
    {
      "inputs": [
        {
          "internalType": "uint256",
          "name": "tokenId",
          "type": "uint256"
        }
      ],
      "name": "getApproved",
      "outputs": [
        {
          "internalType": "address",
          "name": "",
          "type": "address"
        }
      ],
      "stateMutability": "view",
      "type": "function"
    },
    {
      "inputs": [
        {
          "internalType": "address",
          "name": "owner",
          "type": "address"
        },
        {
          "internalType": "address",
          "name": "operator",
          "type": "address"
        }
      ],
      "name": "isApprovedForAll",
      "outputs": [
        {
          "internalType": "bool",
          "name": "",
          "type": "bool"
        }
      ],
      "stateMutability": "view",
      "type": "function"
    },
    {
      "inputs": [],
      "name": "maxPerWallet",
      "outputs": [
        {
          "internalType": "uint256",
          "name": "",
          "type": "uint256"
        }
      ],
      "stateMutability": "view",
      "type": "function"
    },
    {
      "inputs": [],
      "name": "maxSupply",
      "outputs": [
        {
          "internalType": "uint256",
          "name": "",
          "type": "uint256"
        }
      ],
      "stateMutability": "view",
      "type": "function"
    },
    {
      "inputs": [
        {
          "internalType": "uint256",
          "name": "quantity_",
          "type": "uint256"
        }
      ],
      "name": "mint0",
      "outputs": [],
      "stateMutability": "payable",
      "type": "function"
    },
    {
      "inputs": [
        {
          "internalType": "uint256",
          "name": "quantity_",
          "type": "uint256"
        }
      ],
      "name": "mint1",
      "outputs": [],
      "stateMutability": "payable",
      "type": "function"
    },
    {
      "inputs": [
        {
          "internalType": "uint256",
          "name": "quantity_",
          "type": "uint256"
        }
      ],
      "name": "mint10",
      "outputs": [],
      "stateMutability": "payable",
      "type": "function"
    },
    {
      "inputs": [
        {
          "internalType": "uint256",
          "name": "quantity_",
          "type": "uint256"
        }
      ],
      "name": "mint11",
      "outputs": [],
      "stateMutability": "payable",
      "type": "function"
    },
    {
      "inputs": [
        {
          "internalType": "uint256",
          "name": "quantity_",
          "type": "uint256"
        }
      ],
      "name": "mint2",
      "outputs": [],
      "stateMutability": "payable",
      "type": "function"
    },
    {
      "inputs": [
        {
          "internalType": "uint256",
          "name": "quantity_",
          "type": "uint256"
        }
      ],
      "name": "mint3",
      "outputs": [],
      "stateMutability": "payable",
      "type": "function"
    },
    {
      "inputs": [
        {
          "internalType": "uint256",
          "name": "quantity_",
          "type": "uint256"
        }
      ],
      "name": "mint4",
      "outputs": [],
      "stateMutability": "payable",
      "type": "function"
    },
    {
      "inputs": [
        {
          "internalType": "uint256",
          "name": "quantity_",
          "type": "uint256"
        }
      ],
      "name": "mint5",
      "outputs": [],
      "stateMutability": "payable",
      "type": "function"
    },
    {
      "inputs": [
        {
          "internalType": "uint256",
          "name": "quantity_",
          "type": "uint256"
        }
      ],
      "name": "mint6",
      "outputs": [],
      "stateMutability": "payable",
      "type": "function"
    },
    {
      "inputs": [
        {
          "internalType": "uint256",
          "name": "quantity_",
          "type": "uint256"
        }
      ],
      "name": "mint7",
      "outputs": [],
      "stateMutability": "payable",
      "type": "function"
    },
    {
      "inputs": [
        {
          "internalType": "uint256",
          "name": "quantity_",
          "type": "uint256"
        }
      ],
      "name": "mint8",
      "outputs": [],
      "stateMutability": "payable",
      "type": "function"
    },
    {
      "inputs": [
        {
          "internalType": "uint256",
          "name": "quantity_",
          "type": "uint256"
        }
      ],
      "name": "mint9",
      "outputs": [],
      "stateMutability": "payable",
      "type": "function"
    },
    {
      "inputs": [],
      "name": "mintPrice",
      "outputs": [
        {
          "internalType": "uint256",
          "name": "",
          "type": "uint256"
        }
      ],
      "stateMutability": "view",
      "type": "function"
    },
    {
      "inputs": [],
      "name": "name",
      "outputs": [
        {
          "internalType": "string",
          "name": "",
          "type": "string"
        }
      ],
      "stateMutability": "view",
      "type": "function"
    },
    {
      "inputs": [],
      "name": "nft0minted",
      "outputs": [
        {
          "internalType": "bool",
          "name": "",
          "type": "bool"
        }
      ],
      "stateMutability": "view",
      "type": "function"
    },
    {
      "inputs": [],
      "name": "nft10minted",
      "outputs": [
        {
          "internalType": "bool",
          "name": "",
          "type": "bool"
        }
      ],
      "stateMutability": "view",
      "type": "function"
    },
    {
      "inputs": [],
      "name": "nft11minted",
      "outputs": [
        {
          "internalType": "bool",
          "name": "",
          "type": "bool"
        }
      ],
      "stateMutability": "view",
      "type": "function"
    },
    {
      "inputs": [],
      "name": "nft1minted",
      "outputs": [
        {
          "internalType": "bool",
          "name": "",
          "type": "bool"
        }
      ],
      "stateMutability": "view",
      "type": "function"
    },
    {
      "inputs": [],
      "name": "nft2minted",
      "outputs": [
        {
          "internalType": "bool",
          "name": "",
          "type": "bool"
        }
      ],
      "stateMutability": "view",
      "type": "function"
    },
    {
      "inputs": [],
      "name": "nft3minted",
      "outputs": [
        {
          "internalType": "bool",
          "name": "",
          "type": "bool"
        }
      ],
      "stateMutability": "view",
      "type": "function"
    },
    {
      "inputs": [],
      "name": "nft4minted",
      "outputs": [
        {
          "internalType": "bool",
          "name": "",
          "type": "bool"
        }
      ],
      "stateMutability": "view",
      "type": "function"
    },
    {
      "inputs": [],
      "name": "nft5minted",
      "outputs": [
        {
          "internalType": "bool",
          "name": "",
          "type": "bool"
        }
      ],
      "stateMutability": "view",
      "type": "function"
    },
    {
      "inputs": [],
      "name": "nft6minted",
      "outputs": [
        {
          "internalType": "bool",
          "name": "",
          "type": "bool"
        }
      ],
      "stateMutability": "view",
      "type": "function"
    },
    {
      "inputs": [],
      "name": "nft7minted",
      "outputs": [
        {
          "internalType": "bool",
          "name": "",
          "type": "bool"
        }
      ],
      "stateMutability": "view",
      "type": "function"
    },
    {
      "inputs": [],
      "name": "nft8minted",
      "outputs": [
        {
          "internalType": "bool",
          "name": "",
          "type": "bool"
        }
      ],
      "stateMutability": "view",
      "type": "function"
    },
    {
      "inputs": [],
      "name": "nft9minted",
      "outputs": [
        {
          "internalType": "bool",
          "name": "",
          "type": "bool"
        }
      ],
      "stateMutability": "view",
      "type": "function"
    },
    {
      "inputs": [],
      "name": "owner",
      "outputs": [
        {
          "internalType": "address",
          "name": "",
          "type": "address"
        }
      ],
      "stateMutability": "view",
      "type": "function"
    },
    {
      "inputs": [
        {
          "internalType": "uint256",
          "name": "tokenId",
          "type": "uint256"
        }
      ],
      "name": "ownerOf",
      "outputs": [
        {
          "internalType": "address",
          "name": "",
          "type": "address"
        }
      ],
      "stateMutability": "view",
      "type": "function"
    },
    {
      "inputs": [],
      "name": "renounceOwnership",
      "outputs": [],
      "stateMutability": "nonpayable",
      "type": "function"
    },
    {
      "inputs": [
        {
          "internalType": "address",
          "name": "from",
          "type": "address"
        },
        {
          "internalType": "address",
          "name": "to",
          "type": "address"
        },
        {
          "internalType": "uint256",
          "name": "tokenId",
          "type": "uint256"
        }
      ],
      "name": "safeTransferFrom",
      "outputs": [],
      "stateMutability": "nonpayable",
      "type": "function"
    },
    {
      "inputs": [
        {
          "internalType": "address",
          "name": "from",
          "type": "address"
        },
        {
          "internalType": "address",
          "name": "to",
          "type": "address"
        },
        {
          "internalType": "uint256",
          "name": "tokenId",
          "type": "uint256"
        },
        {
          "internalType": "bytes",
          "name": "data",
          "type": "bytes"
        }
      ],
      "name": "safeTransferFrom",
      "outputs": [],
      "stateMutability": "nonpayable",
      "type": "function"
    },
    {
      "inputs": [
        {
          "internalType": "address",
          "name": "operator",
          "type": "address"
        },
        {
          "internalType": "bool",
          "name": "approved",
          "type": "bool"
        }
      ],
      "name": "setApprovalForAll",
      "outputs": [],
      "stateMutability": "nonpayable",
      "type": "function"
    },
    {
      "inputs": [
        {
          "internalType": "string",
          "name": "baseTokenUri_",
          "type": "string"
        }
      ],
      "name": "setBaseTokenUri",
      "outputs": [],
      "stateMutability": "nonpayable",
      "type": "function"
    },
    {
      "inputs": [
        {
          "internalType": "bytes4",
          "name": "interfaceId",
          "type": "bytes4"
        }
      ],
      "name": "supportsInterface",
      "outputs": [
        {
          "internalType": "bool",
          "name": "",
          "type": "bool"
        }
      ],
      "stateMutability": "view",
      "type": "function"
    },
    {
      "inputs": [],
      "name": "symbol",
      "outputs": [
        {
          "internalType": "string",
          "name": "",
          "type": "string"
        }
      ],
      "stateMutability": "view",
      "type": "function"
    },
    {
      "inputs": [
        {
          "internalType": "uint256",
          "name": "tokenId_",
          "type": "uint256"
        }
      ],
      "name": "tokenURI",
      "outputs": [
        {
          "internalType": "string",
          "name": "",
          "type": "string"
        }
      ],
      "stateMutability": "view",
      "type": "function"
    },
    {
      "inputs": [],
      "name": "totalSupply",
      "outputs": [
        {
          "internalType": "uint256",
          "name": "",
          "type": "uint256"
        }
      ],
      "stateMutability": "view",
      "type": "function"
    },
    {
      "inputs": [
        {
          "internalType": "address",
          "name": "from",
          "type": "address"
        },
        {
          "internalType": "address",
          "name": "to",
          "type": "address"
        },
        {
          "internalType": "uint256",
          "name": "tokenId",
          "type": "uint256"
        }
      ],
      "name": "transferFrom",
      "outputs": [],
      "stateMutability": "nonpayable",
      "type": "function"
    },
    {
      "inputs": [
        {
          "internalType": "address",
          "name": "newOwner",
          "type": "address"
        }
      ],
      "name": "transferOwnership",
      "outputs": [],
      "stateMutability": "nonpayable",
      "type": "function"
    },
    {
      "inputs": [
        {
          "internalType": "address",
          "name": "",
          "type": "address"
        }
      ],
      "name": "walletMints",
      "outputs": [
        {
          "internalType": "uint256",
          "name": "",
          "type": "uint256"
        }
      ],
      "stateMutability": "view",
      "type": "function"
    },
    {
      "inputs": [],
      "name": "widthdraw",
      "outputs": [],
      "stateMutability": "nonpayable",
      "type": "function"
    },
    {
      "inputs": [],
      "name": "withdrawWallet",
      "outputs": [
        {
          "internalType": "address payable",
          "name": "",
          "type": "address"
        }
      ],
      "stateMutability": "view",
      "type": "function"
    }
  ],
  "bytecode": "0x60806040526040518060400160405280601a81526020017f50726f6a6563744e656d65736973436f6e7472696275746f72730000000000008152506040518060400160405280600381526020017f504e430000000000000000000000000000000000000000000000000000000000815250816000908051906020019062000088929190620001be565b508060019080519060200190620000a1929190620001be565b505050620000c4620000b8620000f060201b60201c565b620000f860201b60201c565b66038d7ea4c68000600781905550600060088190555060146009819055506002600a81905550620002d3565b600033905090565b6000600660009054906101000a900473ffffffffffffffffffffffffffffffffffffffff16905081600660006101000a81548173ffffffffffffffffffffffffffffffffffffffff021916908373ffffffffffffffffffffffffffffffffffffffff1602179055508173ffffffffffffffffffffffffffffffffffffffff168173ffffffffffffffffffffffffffffffffffffffff167f8be0079c531659141344cd1fd0a4f28419497f9722a3daafe3b4186f6b6457e060405160405180910390a35050565b828054620001cc906200026e565b90600052602060002090601f016020900481019282620001f057600085556200023c565b82601f106200020b57805160ff19168380011785556200023c565b828001600101855582156200023c579182015b828111156200023b5782518255916020019190600101906200021e565b5b5090506200024b91906200024f565b5090565b5b808211156200026a57600081600090555060010162000250565b5090565b600060028204905060018216806200028757607f821691505b602082108114156200029e576200029d620002a4565b5b50919050565b7f4e487b7100000000000000000000000000000000000000000000000000000000600052602260045260246000fd5b614a0580620002e36000396000f3fe6080604052600436106102935760003560e01c80636c0282461161015a578063a54259d6116100c1578063e30415e51161007a578063e30415e514610936578063e985e9c514610952578063f0293fd31461098f578063f127ddc3146109cc578063f216bd69146109e8578063f2fde38b14610a1357610293565b8063a54259d614610842578063a6fedf4a1461085e578063b88d4fde1461087a578063c1a3ae45146108a3578063c87b56dd146108ce578063d5abeb011461090b57610293565b80638cb25674116101135780638cb25674146107445780638da5cb5b1461076f57806395652cfa1461079a57806395d89b41146107c357806395ee6cc6146107ee578063a22cb4651461081957610293565b80636c0282461461065357806370a082311461067e57806370cf8733146106bb578063715018a6146106e65780637393238c146106fd57806385d178f41461071957610293565b80632f1845fb116101fe57806352b50a2a116101b757806352b50a2a14610562578063541bb4cb146105795780635f9dac8d146105955780636352211e146105c057806365e7cdf2146105fd5780636817c76c1461062857610293565b80632f1845fb1461048f5780633aa18088146104ab5780633d9a7cdc146104c757806342842e0e146104f2578063453c23101461051b5780634b0af0771461054657610293565b806318160ddd1161025057806318160ddd146103bc5780631913df1d146103e75780631d0ac375146104035780632367f4821461042e57806323b872dd1461044a57806325cccb941461047357610293565b806301ffc9a71461029857806306fdde03146102d5578063081812fc14610300578063086f6f6b1461033d578063095ea7b314610368578063173a304314610391575b600080fd5b3480156102a457600080fd5b506102bf60048036038101906102ba91906138bd565b610a3c565b6040516102cc9190613e5d565b60405180910390f35b3480156102e157600080fd5b506102ea610b1e565b6040516102f79190613e78565b60405180910390f35b34801561030c57600080fd5b5061032760048036038101906103229190613954565b610bb0565b6040516103349190613ddb565b60405180910390f35b34801561034957600080fd5b50610352610bf6565b60405161035f9190613e5d565b60405180910390f35b34801561037457600080fd5b5061038f600480360381019061038a9190613881565b610c09565b005b34801561039d57600080fd5b506103a6610d21565b6040516103b39190613e5d565b60405180910390f35b3480156103c857600080fd5b506103d1610d34565b6040516103de91906140da565b60405180910390f35b61040160048036038101906103fc9190613954565b610d3a565b005b34801561040f57600080fd5b50610418610edd565b6040516104259190613e5d565b60405180910390f35b61044860048036038101906104439190613954565b610ef0565b005b34801561045657600080fd5b50610471600480360381019061046c919061377b565b611093565b005b61048d60048036038101906104889190613954565b6110f3565b005b6104a960048036038101906104a49190613954565b611296565b005b6104c560048036038101906104c09190613954565b611439565b005b3480156104d357600080fd5b506104dc6115dc565b6040516104e99190613e5d565b60405180910390f35b3480156104fe57600080fd5b506105196004803603810190610514919061377b565b6115ef565b005b34801561052757600080fd5b5061053061160f565b60405161053d91906140da565b60405180910390f35b610560600480360381019061055b9190613954565b611615565b005b34801561056e57600080fd5b506105776117b8565b005b610593600480360381019061058e9190613954565b611891565b005b3480156105a157600080fd5b506105aa611a34565b6040516105b79190613e5d565b60405180910390f35b3480156105cc57600080fd5b506105e760048036038101906105e29190613954565b611a47565b6040516105f49190613ddb565b60405180910390f35b34801561060957600080fd5b50610612611af9565b60405161061f9190613e5d565b60405180910390f35b34801561063457600080fd5b5061063d611b0c565b60405161064a91906140da565b60405180910390f35b34801561065f57600080fd5b50610668611b12565b6040516106759190613e5d565b60405180910390f35b34801561068a57600080fd5b506106a560048036038101906106a09190613716565b611b25565b6040516106b291906140da565b60405180910390f35b3480156106c757600080fd5b506106d0611bdd565b6040516106dd9190613e5d565b60405180910390f35b3480156106f257600080fd5b506106fb611bf0565b005b61071760048036038101906107129190613954565b611c04565b005b34801561072557600080fd5b5061072e611da7565b60405161073b9190613df6565b60405180910390f35b34801561075057600080fd5b50610759611dcd565b6040516107669190613e5d565b60405180910390f35b34801561077b57600080fd5b50610784611de0565b6040516107919190613ddb565b60405180910390f35b3480156107a657600080fd5b506107c160048036038101906107bc919061390f565b611e0a565b005b3480156107cf57600080fd5b506107d8611e28565b6040516107e59190613e78565b60405180910390f35b3480156107fa57600080fd5b50610803611eba565b6040516108109190613e5d565b60405180910390f35b34801561082557600080fd5b50610840600480360381019061083b9190613845565b611ecd565b005b61085c60048036038101906108579190613954565b611ee3565b005b61087860048036038101906108739190613954565b612086565b005b34801561088657600080fd5b506108a1600480360381019061089c91906137ca565b612229565b005b3480156108af57600080fd5b506108b861228b565b6040516108c59190613e5d565b60405180910390f35b3480156108da57600080fd5b506108f560048036038101906108f09190613954565b61229e565b6040516109029190613e78565b60405180910390f35b34801561091757600080fd5b5061092061231a565b60405161092d91906140da565b60405180910390f35b610950600480360381019061094b9190613954565b612320565b005b34801561095e57600080fd5b506109796004803603810190610974919061373f565b6124c3565b6040516109869190613e5d565b60405180910390f35b34801561099b57600080fd5b506109b660048036038101906109b19190613716565b612557565b6040516109c391906140da565b60405180910390f35b6109e660048036038101906109e19190613954565b61256f565b005b3480156109f457600080fd5b506109fd612712565b604051610a0a9190613e5d565b60405180910390f35b348015610a1f57600080fd5b50610a3a6004803603810190610a359190613716565b612725565b005b60007f80ac58cd000000000000000000000000000000000000000000000000000000007bffffffffffffffffffffffffffffffffffffffffffffffffffffffff1916827bffffffffffffffffffffffffffffffffffffffffffffffffffffffff19161480610b0757507f5b5e139f000000000000000000000000000000000000000000000000000000007bffffffffffffffffffffffffffffffffffffffffffffffffffffffff1916827bffffffffffffffffffffffffffffffffffffffffffffffffffffffff1916145b80610b175750610b16826127a9565b5b9050919050565b606060008054610b2d9061438b565b80601f0160208091040260200160405190810160405280929190818152602001828054610b599061438b565b8015610ba65780601f10610b7b57610100808354040283529160200191610ba6565b820191906000526020600020905b815481529060010190602001808311610b8957829003601f168201915b5050505050905090565b6000610bbb82612813565b6004600083815260200190815260200160002060009054906101000a900473ffffffffffffffffffffffffffffffffffffffff169050919050565b600660169054906101000a900460ff1681565b6000610c1482611a47565b90508073ffffffffffffffffffffffffffffffffffffffff168373ffffffffffffffffffffffffffffffffffffffff161415610c85576040517f08c379a0000000000000000000000000000000000000000000000000000000008152600401610c7c9061405a565b60405180910390fd5b8073ffffffffffffffffffffffffffffffffffffffff16610ca461285e565b73ffffffffffffffffffffffffffffffffffffffff161480610cd35750610cd281610ccd61285e565b6124c3565b5b610d12576040517f08c379a0000000000000000000000000000000000000000000000000000000008152600401610d0990613fba565b60405180910390fd5b610d1c8383612866565b505050565b600660179054906101000a900460ff1681565b60085481565b60075481610d489190614235565b3414610d89576040517f08c379a0000000000000000000000000000000000000000000000000000000008152600401610d8090613e9a565b60405180910390fd5b60095481600854610d9a91906141ae565b1115610ddb576040517f08c379a0000000000000000000000000000000000000000000000000000000008152600401610dd290613f7a565b60405180910390fd5b600a5481600d60003373ffffffffffffffffffffffffffffffffffffffff1673ffffffffffffffffffffffffffffffffffffffff16815260200190815260200160002054610e2991906141ae565b1115610e6a576040517f08c379a0000000000000000000000000000000000000000000000000000000008152600401610e6190613ffa565b60405180910390fd5b60005b81811015610ebe5760006001600854610e8691906141ae565b905060086000815480929190610e9b906143ee565b9190505550610eaa338261291f565b508080610eb6906143ee565b915050610e6d565b506001600660176101000a81548160ff02191690831515021790555050565b6006601b9054906101000a900460ff1681565b60075481610efe9190614235565b3414610f3f576040517f08c379a0000000000000000000000000000000000000000000000000000000008152600401610f3690613e9a565b60405180910390fd5b60095481600854610f5091906141ae565b1115610f91576040517f08c379a0000000000000000000000000000000000000000000000000000000008152600401610f8890613f7a565b60405180910390fd5b600a5481600d60003373ffffffffffffffffffffffffffffffffffffffff1673ffffffffffffffffffffffffffffffffffffffff16815260200190815260200160002054610fdf91906141ae565b1115611020576040517f08c379a000000000000000000000000000000000000000000000000000000000815260040161101790613ffa565b60405180910390fd5b60005b81811015611074576000600160085461103c91906141ae565b905060086000815480929190611051906143ee565b9190505550611060338261291f565b50808061106c906143ee565b915050611023565b5060016006601e6101000a81548160ff02191690831515021790555050565b6110a461109e61285e565b8261293d565b6110e3576040517f08c379a00000000000000000000000000000000000000000000000000000000081526004016110da9061407a565b60405180910390fd5b6110ee8383836129d2565b505050565b600754816111019190614235565b3414611142576040517f08c379a000000000000000000000000000000000000000000000000000000000815260040161113990613e9a565b60405180910390fd5b6009548160085461115391906141ae565b1115611194576040517f08c379a000000000000000000000000000000000000000000000000000000000815260040161118b90613f7a565b60405180910390fd5b600a5481600d60003373ffffffffffffffffffffffffffffffffffffffff1673ffffffffffffffffffffffffffffffffffffffff168152602001908152602001600020546111e291906141ae565b1115611223576040517f08c379a000000000000000000000000000000000000000000000000000000000815260040161121a90613ffa565b60405180910390fd5b60005b81811015611277576000600160085461123f91906141ae565b905060086000815480929190611254906143ee565b9190505550611263338261291f565b50808061126f906143ee565b915050611226565b506001600660156101000a81548160ff02191690831515021790555050565b600754816112a49190614235565b34146112e5576040517f08c379a00000000000000000000000000000000000000000000000000000000081526004016112dc90613e9a565b60405180910390fd5b600954816008546112f691906141ae565b1115611337576040517f08c379a000000000000000000000000000000000000000000000000000000000815260040161132e90613f7a565b60405180910390fd5b600a5481600d60003373ffffffffffffffffffffffffffffffffffffffff1673ffffffffffffffffffffffffffffffffffffffff1681526020019081526020016000205461138591906141ae565b11156113c6576040517f08c379a00000000000000000000000000000000000000000000000000000000081526004016113bd90613ffa565b60405180910390fd5b60005b8181101561141a57600060016008546113e291906141ae565b9050600860008154809291906113f7906143ee565b9190505550611406338261291f565b508080611412906143ee565b9150506113c9565b506001600660146101000a81548160ff02191690831515021790555050565b600754816114479190614235565b3414611488576040517f08c379a000000000000000000000000000000000000000000000000000000000815260040161147f90613e9a565b60405180910390fd5b6009548160085461149991906141ae565b11156114da576040517f08c379a00000000000000000000000000000000000000000000000000000000081526004016114d190613f7a565b60405180910390fd5b600a5481600d60003373ffffffffffffffffffffffffffffffffffffffff1673ffffffffffffffffffffffffffffffffffffffff1681526020019081526020016000205461152891906141ae565b1115611569576040517f08c379a000000000000000000000000000000000000000000000000000000000815260040161156090613ffa565b60405180910390fd5b60005b818110156115bd576000600160085461158591906141ae565b90506008600081548092919061159a906143ee565b91905055506115a9338261291f565b5080806115b5906143ee565b91505061156c565b506001600660166101000a81548160ff02191690831515021790555050565b6006601c9054906101000a900460ff1681565b61160a83838360405180602001604052806000815250612229565b505050565b600a5481565b600754816116239190614235565b3414611664576040517f08c379a000000000000000000000000000000000000000000000000000000000815260040161165b90613e9a565b60405180910390fd5b6009548160085461167591906141ae565b11156116b6576040517f08c379a00000000000000000000000000000000000000000000000000000000081526004016116ad90613f7a565b60405180910390fd5b600a5481600d60003373ffffffffffffffffffffffffffffffffffffffff1673ffffffffffffffffffffffffffffffffffffffff1681526020019081526020016000205461170491906141ae565b1115611745576040517f08c379a000000000000000000000000000000000000000000000000000000000815260040161173c90613ffa565b60405180910390fd5b60005b81811015611799576000600160085461176191906141ae565b905060086000815480929190611776906143ee565b9190505550611785338261291f565b508080611791906143ee565b915050611748565b5060016006601d6101000a81548160ff02191690831515021790555050565b6117c0612c39565b6000600c60009054906101000a900473ffffffffffffffffffffffffffffffffffffffff1673ffffffffffffffffffffffffffffffffffffffff164760405161180890613dc6565b60006040518083038185875af1925050503d8060008114611845576040519150601f19603f3d011682016040523d82523d6000602084013e61184a565b606091505b505090508061188e576040517f08c379a0000000000000000000000000000000000000000000000000000000008152600401611885906140ba565b60405180910390fd5b50565b6007548161189f9190614235565b34146118e0576040517f08c379a00000000000000000000000000000000000000000000000000000000081526004016118d790613e9a565b60405180910390fd5b600954816008546118f191906141ae565b1115611932576040517f08c379a000000000000000000000000000000000000000000000000000000000815260040161192990613f7a565b60405180910390fd5b600a5481600d60003373ffffffffffffffffffffffffffffffffffffffff1673ffffffffffffffffffffffffffffffffffffffff1681526020019081526020016000205461198091906141ae565b11156119c1576040517f08c379a00000000000000000000000000000000000000000000000000000000081526004016119b890613ffa565b60405180910390fd5b60005b81811015611a1557600060016008546119dd91906141ae565b9050600860008154809291906119f2906143ee565b9190505550611a01338261291f565b508080611a0d906143ee565b9150506119c4565b5060016006601a6101000a81548160ff02191690831515021790555050565b6006601d9054906101000a900460ff1681565b6000806002600084815260200190815260200160002060009054906101000a900473ffffffffffffffffffffffffffffffffffffffff169050600073ffffffffffffffffffffffffffffffffffffffff168173ffffffffffffffffffffffffffffffffffffffff161415611af0576040517f08c379a0000000000000000000000000000000000000000000000000000000008152600401611ae79061403a565b60405180910390fd5b80915050919050565b600660189054906101000a900460ff1681565b60075481565b6006601e9054906101000a900460ff1681565b60008073ffffffffffffffffffffffffffffffffffffffff168273ffffffffffffffffffffffffffffffffffffffff161415611b96576040517f08c379a0000000000000000000000000000000000000000000000000000000008152600401611b8d90613f9a565b60405180910390fd5b600360008373ffffffffffffffffffffffffffffffffffffffff1673ffffffffffffffffffffffffffffffffffffffff168152602001908152602001600020549050919050565b6006601a9054906101000a900460ff1681565b611bf8612c39565b611c026000612cb7565b565b60075481611c129190614235565b3414611c53576040517f08c379a0000000000000000000000000000000000000000000000000000000008152600401611c4a90613e9a565b60405180910390fd5b60095481600854611c6491906141ae565b1115611ca5576040517f08c379a0000000000000000000000000000000000000000000000000000000008152600401611c9c90613f7a565b60405180910390fd5b600a5481600d60003373ffffffffffffffffffffffffffffffffffffffff1673ffffffffffffffffffffffffffffffffffffffff16815260200190815260200160002054611cf391906141ae565b1115611d34576040517f08c379a0000000000000000000000000000000000000000000000000000000008152600401611d2b90613ffa565b60405180910390fd5b60005b81811015611d885760006001600854611d5091906141ae565b905060086000815480929190611d65906143ee565b9190505550611d74338261291f565b508080611d80906143ee565b915050611d37565b5060016006601b6101000a81548160ff02191690831515021790555050565b600c60009054906101000a900473ffffffffffffffffffffffffffffffffffffffff1681565b600660149054906101000a900460ff1681565b6000600660009054906101000a900473ffffffffffffffffffffffffffffffffffffffff16905090565b611e12612c39565b8181600b9190611e23929190613558565b505050565b606060018054611e379061438b565b80601f0160208091040260200160405190810160405280929190818152602001828054611e639061438b565b8015611eb05780601f10611e8557610100808354040283529160200191611eb0565b820191906000526020600020905b815481529060010190602001808311611e9357829003601f168201915b5050505050905090565b600660159054906101000a900460ff1681565b611edf611ed861285e565b8383612d7d565b5050565b60075481611ef19190614235565b3414611f32576040517f08c379a0000000000000000000000000000000000000000000000000000000008152600401611f2990613e9a565b60405180910390fd5b60095481600854611f4391906141ae565b1115611f84576040517f08c379a0000000000000000000000000000000000000000000000000000000008152600401611f7b90613f7a565b60405180910390fd5b600a5481600d60003373ffffffffffffffffffffffffffffffffffffffff1673ffffffffffffffffffffffffffffffffffffffff16815260200190815260200160002054611fd291906141ae565b1115612013576040517f08c379a000000000000000000000000000000000000000000000000000000000815260040161200a90613ffa565b60405180910390fd5b60005b81811015612067576000600160085461202f91906141ae565b905060086000815480929190612044906143ee565b9190505550612053338261291f565b50808061205f906143ee565b915050612016565b5060016006601c6101000a81548160ff02191690831515021790555050565b600754816120949190614235565b34146120d5576040517f08c379a00000000000000000000000000000000000000000000000000000000081526004016120cc90613e9a565b60405180910390fd5b600954816008546120e691906141ae565b1115612127576040517f08c379a000000000000000000000000000000000000000000000000000000000815260040161211e90613f7a565b60405180910390fd5b600a5481600d60003373ffffffffffffffffffffffffffffffffffffffff1673ffffffffffffffffffffffffffffffffffffffff1681526020019081526020016000205461217591906141ae565b11156121b6576040517f08c379a00000000000000000000000000000000000000000000000000000000081526004016121ad90613ffa565b60405180910390fd5b60005b8181101561220a57600060016008546121d291906141ae565b9050600860008154809291906121e7906143ee565b91905055506121f6338261291f565b508080612202906143ee565b9150506121b9565b506001600660186101000a81548160ff02191690831515021790555050565b61223a61223461285e565b8361293d565b612279576040517f08c379a00000000000000000000000000000000000000000000000000000000081526004016122709061407a565b60405180910390fd5b61228584848484612eea565b50505050565b6006601f9054906101000a900460ff1681565b60606122a982612f46565b6122e8576040517f08c379a00000000000000000000000000000000000000000000000000000000081526004016122df9061409a565b60405180910390fd5b600b6122f383612fb2565b604051602001612304929190613d97565b6040516020818303038152906040529050919050565b60095481565b6007548161232e9190614235565b341461236f576040517f08c379a000000000000000000000000000000000000000000000000000000000815260040161236690613e9a565b60405180910390fd5b6009548160085461238091906141ae565b11156123c1576040517f08c379a00000000000000000000000000000000000000000000000000000000081526004016123b890613f7a565b60405180910390fd5b600a5481600d60003373ffffffffffffffffffffffffffffffffffffffff1673ffffffffffffffffffffffffffffffffffffffff1681526020019081526020016000205461240f91906141ae565b1115612450576040517f08c379a000000000000000000000000000000000000000000000000000000000815260040161244790613ffa565b60405180910390fd5b60005b818110156124a4576000600160085461246c91906141ae565b905060086000815480929190612481906143ee565b9190505550612490338261291f565b50808061249c906143ee565b915050612453565b506001600660196101000a81548160ff02191690831515021790555050565b6000600560008473ffffffffffffffffffffffffffffffffffffffff1673ffffffffffffffffffffffffffffffffffffffff16815260200190815260200160002060008373ffffffffffffffffffffffffffffffffffffffff1673ffffffffffffffffffffffffffffffffffffffff16815260200190815260200160002060009054906101000a900460ff16905092915050565b600d6020528060005260406000206000915090505481565b6007548161257d9190614235565b34146125be576040517f08c379a00000000000000000000000000000000000000000000000000000000081526004016125b590613e9a565b60405180910390fd5b600954816008546125cf91906141ae565b1115612610576040517f08c379a000000000000000000000000000000000000000000000000000000000815260040161260790613f7a565b60405180910390fd5b600a5481600d60003373ffffffffffffffffffffffffffffffffffffffff1673ffffffffffffffffffffffffffffffffffffffff1681526020019081526020016000205461265e91906141ae565b111561269f576040517f08c379a000000000000000000000000000000000000000000000000000000000815260040161269690613ffa565b60405180910390fd5b60005b818110156126f357600060016008546126bb91906141ae565b9050600860008154809291906126d0906143ee565b91905055506126df338261291f565b5080806126eb906143ee565b9150506126a2565b5060016006601f6101000a81548160ff02191690831515021790555050565b600660199054906101000a900460ff1681565b61272d612c39565b600073ffffffffffffffffffffffffffffffffffffffff168173ffffffffffffffffffffffffffffffffffffffff16141561279d576040517f08c379a000000000000000000000000000000000000000000000000000000000815260040161279490613eda565b60405180910390fd5b6127a681612cb7565b50565b60007f01ffc9a7000000000000000000000000000000000000000000000000000000007bffffffffffffffffffffffffffffffffffffffffffffffffffffffff1916827bffffffffffffffffffffffffffffffffffffffffffffffffffffffff1916149050919050565b61281c81612f46565b61285b576040517f08c379a00000000000000000000000000000000000000000000000000000000081526004016128529061403a565b60405180910390fd5b50565b600033905090565b816004600083815260200190815260200160002060006101000a81548173ffffffffffffffffffffffffffffffffffffffff021916908373ffffffffffffffffffffffffffffffffffffffff160217905550808273ffffffffffffffffffffffffffffffffffffffff166128d983611a47565b73ffffffffffffffffffffffffffffffffffffffff167f8c5be1e5ebec7d5bd14f71427d1e84f3dd0314c0f7b2291e5b200ac8c7c3b92560405160405180910390a45050565b61293982826040518060200160405280600081525061315f565b5050565b60008061294983611a47565b90508073ffffffffffffffffffffffffffffffffffffffff168473ffffffffffffffffffffffffffffffffffffffff16148061298b575061298a81856124c3565b5b806129c957508373ffffffffffffffffffffffffffffffffffffffff166129b184610bb0565b73ffffffffffffffffffffffffffffffffffffffff16145b91505092915050565b8273ffffffffffffffffffffffffffffffffffffffff166129f282611a47565b73ffffffffffffffffffffffffffffffffffffffff1614612a48576040517f08c379a0000000000000000000000000000000000000000000000000000000008152600401612a3f90613efa565b60405180910390fd5b600073ffffffffffffffffffffffffffffffffffffffff168273ffffffffffffffffffffffffffffffffffffffff161415612ab8576040517f08c379a0000000000000000000000000000000000000000000000000000000008152600401612aaf90613f3a565b60405180910390fd5b612ac38383836131ba565b612ace600082612866565b6001600360008573ffffffffffffffffffffffffffffffffffffffff1673ffffffffffffffffffffffffffffffffffffffff1681526020019081526020016000206000828254612b1e919061428f565b925050819055506001600360008473ffffffffffffffffffffffffffffffffffffffff1673ffffffffffffffffffffffffffffffffffffffff1681526020019081526020016000206000828254612b7591906141ae565b92505081905550816002600083815260200190815260200160002060006101000a81548173ffffffffffffffffffffffffffffffffffffffff021916908373ffffffffffffffffffffffffffffffffffffffff160217905550808273ffffffffffffffffffffffffffffffffffffffff168473ffffffffffffffffffffffffffffffffffffffff167fddf252ad1be2c89b69c2b068fc378daa952ba7f163c4a11628f55a4df523b3ef60405160405180910390a4612c348383836131bf565b505050565b612c4161285e565b73ffffffffffffffffffffffffffffffffffffffff16612c5f611de0565b73ffffffffffffffffffffffffffffffffffffffff1614612cb5576040517f08c379a0000000000000000000000000000000000000000000000000000000008152600401612cac9061401a565b60405180910390fd5b565b6000600660009054906101000a900473ffffffffffffffffffffffffffffffffffffffff16905081600660006101000a81548173ffffffffffffffffffffffffffffffffffffffff021916908373ffffffffffffffffffffffffffffffffffffffff1602179055508173ffffffffffffffffffffffffffffffffffffffff168173ffffffffffffffffffffffffffffffffffffffff167f8be0079c531659141344cd1fd0a4f28419497f9722a3daafe3b4186f6b6457e060405160405180910390a35050565b8173ffffffffffffffffffffffffffffffffffffffff168373ffffffffffffffffffffffffffffffffffffffff161415612dec576040517f08c379a0000000000000000000000000000000000000000000000000000000008152600401612de390613f5a565b60405180910390fd5b80600560008573ffffffffffffffffffffffffffffffffffffffff1673ffffffffffffffffffffffffffffffffffffffff16815260200190815260200160002060008473ffffffffffffffffffffffffffffffffffffffff1673ffffffffffffffffffffffffffffffffffffffff16815260200190815260200160002060006101000a81548160ff0219169083151502179055508173ffffffffffffffffffffffffffffffffffffffff168373ffffffffffffffffffffffffffffffffffffffff167f17307eab39ab6107e8899845ad3d59bd9653f200f220920489ca2b5937696c3183604051612edd9190613e5d565b60405180910390a3505050565b612ef58484846129d2565b612f01848484846131c4565b612f40576040517f08c379a0000000000000000000000000000000000000000000000000000000008152600401612f3790613eba565b60405180910390fd5b50505050565b60008073ffffffffffffffffffffffffffffffffffffffff166002600084815260200190815260200160002060009054906101000a900473ffffffffffffffffffffffffffffffffffffffff1673ffffffffffffffffffffffffffffffffffffffff1614159050919050565b60606000821415612ffa576040518060400160405280600181526020017f3000000000000000000000000000000000000000000000000000000000000000815250905061315a565b600082905060005b6000821461302c578080613015906143ee565b915050600a826130259190614204565b9150613002565b60008167ffffffffffffffff81111561306e577f4e487b7100000000000000000000000000000000000000000000000000000000600052604160045260246000fd5b6040519080825280601f01601f1916602001820160405280156130a05781602001600182028036833780820191505090505b5090505b60008514613153576001826130b9919061428f565b9150600a856130c89190614437565b60306130d491906141ae565b60f81b818381518110613110577f4e487b7100000000000000000000000000000000000000000000000000000000600052603260045260246000fd5b60200101907effffffffffffffffffffffffffffffffffffffffffffffffffffffffffffff1916908160001a905350600a8561314c9190614204565b94506130a4565b8093505050505b919050565b613169838361335b565b61317660008484846131c4565b6131b5576040517f08c379a00000000000000000000000000000000000000000000000000000000081526004016131ac90613eba565b60405180910390fd5b505050565b505050565b505050565b60006131e58473ffffffffffffffffffffffffffffffffffffffff16613535565b1561334e578373ffffffffffffffffffffffffffffffffffffffff1663150b7a0261320e61285e565b8786866040518563ffffffff1660e01b81526004016132309493929190613e11565b602060405180830381600087803b15801561324a57600080fd5b505af192505050801561327b57506040513d601f19601f8201168201806040525081019061327891906138e6565b60015b6132fe573d80600081146132ab576040519150601f19603f3d011682016040523d82523d6000602084013e6132b0565b606091505b506000815114156132f6576040517f08c379a00000000000000000000000000000000000000000000000000000000081526004016132ed90613eba565b60405180910390fd5b805181602001fd5b63150b7a0260e01b7bffffffffffffffffffffffffffffffffffffffffffffffffffffffff1916817bffffffffffffffffffffffffffffffffffffffffffffffffffffffff191614915050613353565b600190505b949350505050565b600073ffffffffffffffffffffffffffffffffffffffff168273ffffffffffffffffffffffffffffffffffffffff1614156133cb576040517f08c379a00000000000000000000000000000000000000000000000000000000081526004016133c290613fda565b60405180910390fd5b6133d481612f46565b15613414576040517f08c379a000000000000000000000000000000000000000000000000000000000815260040161340b90613f1a565b60405180910390fd5b613420600083836131ba565b6001600360008473ffffffffffffffffffffffffffffffffffffffff1673ffffffffffffffffffffffffffffffffffffffff168152602001908152602001600020600082825461347091906141ae565b92505081905550816002600083815260200190815260200160002060006101000a81548173ffffffffffffffffffffffffffffffffffffffff021916908373ffffffffffffffffffffffffffffffffffffffff160217905550808273ffffffffffffffffffffffffffffffffffffffff16600073ffffffffffffffffffffffffffffffffffffffff167fddf252ad1be2c89b69c2b068fc378daa952ba7f163c4a11628f55a4df523b3ef60405160405180910390a4613531600083836131bf565b5050565b6000808273ffffffffffffffffffffffffffffffffffffffff163b119050919050565b8280546135649061438b565b90600052602060002090601f01602090048101928261358657600085556135cd565b82601f1061359f57803560ff19168380011785556135cd565b828001600101855582156135cd579182015b828111156135cc5782358255916020019190600101906135b1565b5b5090506135da91906135de565b5090565b5b808211156135f75760008160009055506001016135df565b5090565b600061360e6136098461411a565b6140f5565b90508281526020810184848401111561362657600080fd5b613631848285614349565b509392505050565b60008135905061364881614973565b92915050565b60008135905061365d8161498a565b92915050565b600081359050613672816149a1565b92915050565b600081519050613687816149a1565b92915050565b600082601f83011261369e57600080fd5b81356136ae8482602086016135fb565b91505092915050565b60008083601f8401126136c957600080fd5b8235905067ffffffffffffffff8111156136e257600080fd5b6020830191508360018202830111156136fa57600080fd5b9250929050565b600081359050613710816149b8565b92915050565b60006020828403121561372857600080fd5b600061373684828501613639565b91505092915050565b6000806040838503121561375257600080fd5b600061376085828601613639565b925050602061377185828601613639565b9150509250929050565b60008060006060848603121561379057600080fd5b600061379e86828701613639565b93505060206137af86828701613639565b92505060406137c086828701613701565b9150509250925092565b600080600080608085870312156137e057600080fd5b60006137ee87828801613639565b94505060206137ff87828801613639565b935050604061381087828801613701565b925050606085013567ffffffffffffffff81111561382d57600080fd5b6138398782880161368d565b91505092959194509250565b6000806040838503121561385857600080fd5b600061386685828601613639565b92505060206138778582860161364e565b9150509250929050565b6000806040838503121561389457600080fd5b60006138a285828601613639565b92505060206138b385828601613701565b9150509250929050565b6000602082840312156138cf57600080fd5b60006138dd84828501613663565b91505092915050565b6000602082840312156138f857600080fd5b600061390684828501613678565b91505092915050565b6000806020838503121561392257600080fd5b600083013567ffffffffffffffff81111561393c57600080fd5b613948858286016136b7565b92509250509250929050565b60006020828403121561396657600080fd5b600061397484828501613701565b91505092915050565b613986816142d5565b82525050565b613995816142c3565b82525050565b6139a4816142e7565b82525050565b60006139b582614160565b6139bf8185614176565b93506139cf818560208601614358565b6139d881614524565b840191505092915050565b60006139ee8261416b565b6139f88185614192565b9350613a08818560208601614358565b613a1181614524565b840191505092915050565b6000613a278261416b565b613a3181856141a3565b9350613a41818560208601614358565b80840191505092915050565b60008154613a5a8161438b565b613a6481866141a3565b94506001821660008114613a7f5760018114613a9057613ac3565b60ff19831686528186019350613ac3565b613a998561414b565b60005b83811015613abb57815481890152600182019150602081019050613a9c565b838801955050505b50505092915050565b6000613ad9601083614192565b9150613ae482614535565b602082019050919050565b6000613afc603283614192565b9150613b078261455e565b604082019050919050565b6000613b1f602683614192565b9150613b2a826145ad565b604082019050919050565b6000613b42602583614192565b9150613b4d826145fc565b604082019050919050565b6000613b65601c83614192565b9150613b708261464b565b602082019050919050565b6000613b88602483614192565b9150613b9382614674565b604082019050919050565b6000613bab601983614192565b9150613bb6826146c3565b602082019050919050565b6000613bce600883614192565b9150613bd9826146ec565b602082019050919050565b6000613bf1602983614192565b9150613bfc82614715565b604082019050919050565b6000613c14603e83614192565b9150613c1f82614764565b604082019050919050565b6000613c37602083614192565b9150613c42826147b3565b602082019050919050565b6000613c5a6005836141a3565b9150613c65826147dc565b600582019050919050565b6000613c7d601183614192565b9150613c8882614805565b602082019050919050565b6000613ca0602083614192565b9150613cab8261482e565b602082019050919050565b6000613cc3601883614192565b9150613cce82614857565b602082019050919050565b6000613ce6602183614192565b9150613cf182614880565b604082019050919050565b6000613d09600083614187565b9150613d14826148cf565b600082019050919050565b6000613d2c602e83614192565b9150613d37826148d2565b604082019050919050565b6000613d4f601583614192565b9150613d5a82614921565b602082019050919050565b6000613d72600f83614192565b9150613d7d8261494a565b602082019050919050565b613d918161433f565b82525050565b6000613da38285613a4d565b9150613daf8284613a1c565b9150613dba82613c4d565b91508190509392505050565b6000613dd182613cfc565b9150819050919050565b6000602082019050613df0600083018461398c565b92915050565b6000602082019050613e0b600083018461397d565b92915050565b6000608082019050613e26600083018761398c565b613e33602083018661398c565b613e406040830185613d88565b8181036060830152613e5281846139aa565b905095945050505050565b6000602082019050613e72600083018461399b565b92915050565b60006020820190508181036000830152613e9281846139e3565b905092915050565b60006020820190508181036000830152613eb381613acc565b9050919050565b60006020820190508181036000830152613ed381613aef565b9050919050565b60006020820190508181036000830152613ef381613b12565b9050919050565b60006020820190508181036000830152613f1381613b35565b9050919050565b60006020820190508181036000830152613f3381613b58565b9050919050565b60006020820190508181036000830152613f5381613b7b565b9050919050565b60006020820190508181036000830152613f7381613b9e565b9050919050565b60006020820190508181036000830152613f9381613bc1565b9050919050565b60006020820190508181036000830152613fb381613be4565b9050919050565b60006020820190508181036000830152613fd381613c07565b9050919050565b60006020820190508181036000830152613ff381613c2a565b9050919050565b6000602082019050818103600083015261401381613c70565b9050919050565b6000602082019050818103600083015261403381613c93565b9050919050565b6000602082019050818103600083015261405381613cb6565b9050919050565b6000602082019050818103600083015261407381613cd9565b9050919050565b6000602082019050818103600083015261409381613d1f565b9050919050565b600060208201905081810360008301526140b381613d42565b9050919050565b600060208201905081810360008301526140d381613d65565b9050919050565b60006020820190506140ef6000830184613d88565b92915050565b60006140ff614110565b905061410b82826143bd565b919050565b6000604051905090565b600067ffffffffffffffff821115614135576141346144f5565b5b61413e82614524565b9050602081019050919050565b60008190508160005260206000209050919050565b600081519050919050565b600081519050919050565b600082825260208201905092915050565b600081905092915050565b600082825260208201905092915050565b600081905092915050565b60006141b98261433f565b91506141c48361433f565b9250827fffffffffffffffffffffffffffffffffffffffffffffffffffffffffffffffff038211156141f9576141f8614468565b5b828201905092915050565b600061420f8261433f565b915061421a8361433f565b92508261422a57614229614497565b5b828204905092915050565b60006142408261433f565b915061424b8361433f565b9250817fffffffffffffffffffffffffffffffffffffffffffffffffffffffffffffffff048311821515161561428457614283614468565b5b828202905092915050565b600061429a8261433f565b91506142a58361433f565b9250828210156142b8576142b7614468565b5b828203905092915050565b60006142ce8261431f565b9050919050565b60006142e08261431f565b9050919050565b60008115159050919050565b60007fffffffff0000000000000000000000000000000000000000000000000000000082169050919050565b600073ffffffffffffffffffffffffffffffffffffffff82169050919050565b6000819050919050565b82818337600083830152505050565b60005b8381101561437657808201518184015260208101905061435b565b83811115614385576000848401525b50505050565b600060028204905060018216806143a357607f821691505b602082108114156143b7576143b66144c6565b5b50919050565b6143c682614524565b810181811067ffffffffffffffff821117156143e5576143e46144f5565b5b80604052505050565b60006143f98261433f565b91507fffffffffffffffffffffffffffffffffffffffffffffffffffffffffffffffff82141561442c5761442b614468565b5b600182019050919050565b60006144428261433f565b915061444d8361433f565b92508261445d5761445c614497565b5b828206905092915050565b7f4e487b7100000000000000000000000000000000000000000000000000000000600052601160045260246000fd5b7f4e487b7100000000000000000000000000000000000000000000000000000000600052601260045260246000fd5b7f4e487b7100000000000000000000000000000000000000000000000000000000600052602260045260246000fd5b7f4e487b7100000000000000000000000000000000000000000000000000000000600052604160045260246000fd5b6000601f19601f8301169050919050565b7f77726f6e67206d696e742076616c756500000000000000000000000000000000600082015250565b7f4552433732313a207472616e7366657220746f206e6f6e20455243373231526560008201527f63656976657220696d706c656d656e7465720000000000000000000000000000602082015250565b7f4f776e61626c653a206e6577206f776e657220697320746865207a65726f206160008201527f6464726573730000000000000000000000000000000000000000000000000000602082015250565b7f4552433732313a207472616e736665722066726f6d20696e636f72726563742060008201527f6f776e6572000000000000000000000000000000000000000000000000000000602082015250565b7f4552433732313a20746f6b656e20616c7265616479206d696e74656400000000600082015250565b7f4552433732313a207472616e7366657220746f20746865207a65726f2061646460008201527f7265737300000000000000000000000000000000000000000000000000000000602082015250565b7f4552433732313a20617070726f766520746f2063616c6c657200000000000000600082015250565b7f736f6c64206f7574000000000000000000000000000000000000000000000000600082015250565b7f4552433732313a2061646472657373207a65726f206973206e6f74206120766160008201527f6c6964206f776e65720000000000000000000000000000000000000000000000602082015250565b7f4552433732313a20617070726f76652063616c6c6572206973206e6f7420746f60008201527f6b656e206f776e6572206e6f7220617070726f76656420666f7220616c6c0000602082015250565b7f4552433732313a206d696e7420746f20746865207a65726f2061646472657373600082015250565b7f2e6a736f6e000000000000000000000000000000000000000000000000000000600082015250565b7f657863656564206d61782077616c6c6574000000000000000000000000000000600082015250565b7f4f776e61626c653a2063616c6c6572206973206e6f7420746865206f776e6572600082015250565b7f4552433732313a20696e76616c696420746f6b656e2049440000000000000000600082015250565b7f4552433732313a20617070726f76616c20746f2063757272656e74206f776e6560008201527f7200000000000000000000000000000000000000000000000000000000000000602082015250565b50565b7f4552433732313a2063616c6c6572206973206e6f7420746f6b656e206f776e6560008201527f72206e6f7220617070726f766564000000000000000000000000000000000000602082015250565b7f546f6b656e20646f6573206e6f74206578697374210000000000000000000000600082015250565b7f7769746864726177206661696c65640000000000000000000000000000000000600082015250565b61497c816142c3565b811461498757600080fd5b50565b614993816142e7565b811461499e57600080fd5b50565b6149aa816142f3565b81146149b557600080fd5b50565b6149c18161433f565b81146149cc57600080fd5b5056fea2646970667358221220c1c6b6ff1237c00251dd01697a0fd2cead9933c3abec9beef0d304e75f104c2964736f6c63430008040033",
  "linkReferences": {},
  "deployedLinkReferences": {}
}